{
  "abi": [
    {
      "inputs": [
        {
          "internalType": "address[]",
          "name": "payees",
          "type": "address[]"
        },
        {
          "internalType": "uint256[]",
          "name": "shares_",
          "type": "uint256[]"
        }
      ],
      "stateMutability": "payable",
      "type": "constructor"
    },
    {
      "anonymous": false,
      "inputs": [
        {
          "indexed": false,
          "internalType": "address",
          "name": "account",
          "type": "address"
        },
        {
          "indexed": false,
          "internalType": "uint256",
          "name": "shares",
          "type": "uint256"
        }
      ],
      "name": "PayeeAdded",
      "type": "event"
    },
    {
      "anonymous": false,
      "inputs": [
        {
          "indexed": false,
          "internalType": "address",
          "name": "from",
          "type": "address"
        },
        {
          "indexed": false,
          "internalType": "uint256",
          "name": "amount",
          "type": "uint256"
        }
      ],
      "name": "PaymentReceived",
      "type": "event"
    },
    {
      "anonymous": false,
      "inputs": [
        {
          "indexed": false,
          "internalType": "address",
          "name": "to",
          "type": "address"
        },
        {
          "indexed": false,
          "internalType": "uint256",
          "name": "amount",
          "type": "uint256"
        }
      ],
      "name": "PaymentReleased",
      "type": "event"
    },
    {
      "inputs": [
        {
          "internalType": "uint256",
          "name": "index",
          "type": "uint256"
        }
      ],
      "name": "payee",
      "outputs": [
        {
          "internalType": "address",
          "name": "",
          "type": "address"
        }
      ],
      "stateMutability": "view",
      "type": "function"
    },
    {
      "inputs": [
        {
          "internalType": "address payable",
          "name": "account",
          "type": "address"
        }
      ],
      "name": "release",
      "outputs": [],
      "stateMutability": "nonpayable",
      "type": "function"
    },
    {
      "inputs": [
        {
          "internalType": "address",
          "name": "account",
          "type": "address"
        }
      ],
      "name": "released",
      "outputs": [
        {
          "internalType": "uint256",
          "name": "",
          "type": "uint256"
        }
      ],
      "stateMutability": "view",
      "type": "function"
    },
    {
      "inputs": [
        {
          "internalType": "address",
          "name": "account",
          "type": "address"
        }
      ],
      "name": "shares",
      "outputs": [
        {
          "internalType": "uint256",
          "name": "",
          "type": "uint256"
        }
      ],
      "stateMutability": "view",
      "type": "function"
    },
    {
      "inputs": [],
      "name": "totalReleased",
      "outputs": [
        {
          "internalType": "uint256",
          "name": "",
          "type": "uint256"
        }
      ],
      "stateMutability": "view",
      "type": "function"
    },
    {
      "inputs": [],
      "name": "totalShares",
      "outputs": [
        {
          "internalType": "uint256",
          "name": "",
          "type": "uint256"
        }
      ],
      "stateMutability": "view",
      "type": "function"
    },
    {
      "stateMutability": "payable",
      "type": "receive"
    }
  ],
  "bytecode": "608060405260405162000b7e38038062000b7e8339810160408190526200002691620003c6565b8051825114620000985760405162461bcd60e51b815260206004820152603260248201527f5061796d656e7453706c69747465723a2070617965657320616e6420736861726044820152710cae640d8cadccee8d040dad2e6dac2e8c6d60731b60648201526084015b60405180910390fd5b6000825111620000eb5760405162461bcd60e51b815260206004820152601a60248201527f5061796d656e7453706c69747465723a206e6f2070617965657300000000000060448201526064016200008f565b60005b825181101562000157576200014283828151811062000111576200011162000552565b60200260200101518383815181106200012e576200012e62000552565b60200260200101516200016060201b60201c565b806200014e816200051e565b915050620000ee565b5050506200057e565b6001600160a01b038216620001cd5760405162461bcd60e51b815260206004820152602c60248201527f5061796d656e7453706c69747465723a206163636f756e74206973207468652060448201526b7a65726f206164647265737360a01b60648201526084016200008f565b600081116200021f5760405162461bcd60e51b815260206004820152601d60248201527f5061796d656e7453706c69747465723a2073686172657320617265203000000060448201526064016200008f565b6001600160a01b038216600090815260026020526040902054156200029b5760405162461bcd60e51b815260206004820152602b60248201527f5061796d656e7453706c69747465723a206163636f756e7420616c726561647960448201526a206861732073686172657360a81b60648201526084016200008f565b60048054600181019091557f8a35acfbc15ff81a39ae7d344fd709f28e8600b4aa8c65c6b64bfe7fe36bd19b0180546001600160a01b0319166001600160a01b0384169081179091556000908152600260205260408120829055546200030390829062000503565b600055604080516001600160a01b0384168152602081018390527f40c340f65e17194d14ddddb073d3c9f888e3cb52b5aae0c6c7706b4fbc905fac910160405180910390a15050565b600082601f8301126200035e57600080fd5b81516020620003776200037183620004dd565b620004aa565b80838252828201915082860187848660051b89010111156200039857600080fd5b60005b85811015620003b9578151845292840192908401906001016200039b565b5090979650505050505050565b60008060408385031215620003da57600080fd5b82516001600160401b0380821115620003f257600080fd5b818501915085601f8301126200040757600080fd5b815160206200041a6200037183620004dd565b8083825282820191508286018a848660051b89010111156200043b57600080fd5b600096505b84871015620004765780516001600160a01b03811681146200046157600080fd5b83526001969096019591830191830162000440565b50918801519196509093505050808211156200049157600080fd5b50620004a0858286016200034c565b9150509250929050565b604051601f8201601f191681016001600160401b0381118282101715620004d557620004d562000568565b604052919050565b60006001600160401b03821115620004f957620004f962000568565b5060051b60200190565b600082198211156200051957620005196200053c565b500190565b60006000198214156200053557620005356200053c565b5060010190565b634e487b7160e01b600052601160045260246000fd5b634e487b7160e01b600052603260045260246000fd5b634e487b7160e01b600052604160045260246000fd5b6105f0806200058e6000396000f3fe6080604052600436106100595760003560e01c806319165587146100a75780633a98ef39146100c95780638b83209b146100ed5780639852595c14610125578063ce7c2ac21461015b578063e33b7de31461019157600080fd5b366100a2577f6ef95f06320e7a25a04a175ca677b7052bdd97131872c2192525a629f51be77033604080516001600160a01b0390921682523460208301520160405180910390a1005b600080fd5b3480156100b357600080fd5b506100c76100c23660046104c9565b6101a6565b005b3480156100d557600080fd5b506000545b6040519081526020015b60405180910390f35b3480156100f957600080fd5b5061010d6101083660046104ed565b61037b565b6040516001600160a01b0390911681526020016100e4565b34801561013157600080fd5b506100da6101403660046104c9565b6001600160a01b031660009081526003602052604090205490565b34801561016757600080fd5b506100da6101763660046104c9565b6001600160a01b031660009081526002602052604090205490565b34801561019d57600080fd5b506001546100da565b6001600160a01b03811660009081526002602052604090205461021f5760405162461bcd60e51b815260206004820152602660248201527f5061796d656e7453706c69747465723a206163636f756e7420686173206e6f2060448201526573686172657360d01b60648201526084015b60405180910390fd5b60006001544761022f9190610506565b6001600160a01b038316600090815260036020908152604080832054835460029093529083205493945091926102659085610540565b61026f919061051e565b610279919061055f565b9050806102dc5760405162461bcd60e51b815260206004820152602b60248201527f5061796d656e7453706c69747465723a206163636f756e74206973206e6f742060448201526a191d59481c185e5b595b9d60aa1b6064820152608401610216565b6001600160a01b038316600090815260036020526040902054610300908290610506565b6001600160a01b038416600090815260036020526040902055600154610327908290610506565b60015561033483826103ab565b604080516001600160a01b0385168152602081018390527fdf20fd1e76bc69d672e4814fafb2c449bba3a5369d8359adf9e05e6fde87b056910160405180910390a1505050565b6000600482815481106103905761039061058c565b6000918252602090912001546001600160a01b031692915050565b804710156103fb5760405162461bcd60e51b815260206004820152601d60248201527f416464726573733a20696e73756666696369656e742062616c616e63650000006044820152606401610216565b6000826001600160a01b03168260405160006040518083038185875af1925050503d8060008114610448576040519150601f19603f3d011682016040523d82523d6000602084013e61044d565b606091505b50509050806104c45760405162461bcd60e51b815260206004820152603a60248201527f416464726573733a20756e61626c6520746f2073656e642076616c75652c207260448201527f6563697069656e74206d617920686176652072657665727465640000000000006064820152608401610216565b505050565b6000602082840312156104db57600080fd5b81356104e6816105a2565b9392505050565b6000602082840312156104ff57600080fd5b5035919050565b6000821982111561051957610519610576565b500190565b60008261053b57634e487b7160e01b600052601260045260246000fd5b500490565b600081600019048311821515161561055a5761055a610576565b500290565b60008282101561057157610571610576565b500390565b634e487b7160e01b600052601160045260246000fd5b634e487b7160e01b600052603260045260246000fd5b6001600160a01b03811681146105b757600080fd5b5056fea2646970667358221220504845e2850922e7bb6e2c49b04eba6f84849aa5a06ff7767dbf6f667fc5a69464736f6c63430008060033",
  "bytecodeSha1": "84e990a5beac39548c937032e02fdb1b9e61fe1d",
  "compiler": {
    "evm_version": "istanbul",
    "optimizer": {
      "enabled": true,
      "runs": 200
    },
    "version": "0.8.6+commit.11564f7e"
  },
  "contractName": "PaymentSplitter",
  "language": "Solidity",
  "natspec": {
    "details": "This contract allows to split Ether payments among a group of accounts. The sender does not need to be aware that the Ether will be split in this way, since it is handled transparently by the contract. The split can be in equal parts or in any other arbitrary proportion. The way this is specified is by assigning each account to a number of shares. Of all the Ether that this contract receives, each account will then be able to claim an amount proportional to the percentage of total shares they were assigned. `PaymentSplitter` follows a _pull payment_ model. This means that payments are not automatically forwarded to the accounts but kept in this contract, and the actual transfer is triggered as a separate step by calling the {release} function.",
    "kind": "dev",
    "methods": {
      "constructor": {
        "details": "Creates an instance of `PaymentSplitter` where each account in `payees` is assigned the number of shares at the matching position in the `shares` array. All addresses in `payees` must be non-zero. Both arrays must have the same non-zero length, and there must be no duplicates in `payees`."
      },
      "payee(uint256)": {
        "details": "Getter for the address of the payee number `index`."
      },
      "release(address)": {
        "details": "Triggers a transfer to `account` of the amount of Ether they are owed, according to their percentage of the total shares and their previous withdrawals."
      },
      "released(address)": {
        "details": "Getter for the amount of Ether already released to a payee."
      },
      "shares(address)": {
        "details": "Getter for the amount of shares held by an account."
      },
      "totalReleased()": {
        "details": "Getter for the total amount of Ether already released."
      },
      "totalShares()": {
        "details": "Getter for the total shares held by payees."
      }
    },
    "title": "PaymentSplitter",
    "version": 1
  },
  "opcodes": "PUSH1 0x80 PUSH1 0x40 MSTORE PUSH1 0x4 CALLDATASIZE LT PUSH2 0x59 JUMPI PUSH1 0x0 CALLDATALOAD PUSH1 0xE0 SHR DUP1 PUSH4 0x19165587 EQ PUSH2 0xA7 JUMPI DUP1 PUSH4 0x3A98EF39 EQ PUSH2 0xC9 JUMPI DUP1 PUSH4 0x8B83209B EQ PUSH2 0xED JUMPI DUP1 PUSH4 0x9852595C EQ PUSH2 0x125 JUMPI DUP1 PUSH4 0xCE7C2AC2 EQ PUSH2 0x15B JUMPI DUP1 PUSH4 0xE33B7DE3 EQ PUSH2 0x191 JUMPI PUSH1 0x0 DUP1 REVERT JUMPDEST CALLDATASIZE PUSH2 0xA2 JUMPI PUSH32 0x6EF95F06320E7A25A04A175CA677B7052BDD97131872C2192525A629F51BE770 CALLER PUSH1 0x40 DUP1 MLOAD PUSH1 0x1 PUSH1 0x1 PUSH1 0xA0 SHL SUB SWAP1 SWAP3 AND DUP3 MSTORE CALLVALUE PUSH1 0x20 DUP4 ADD MSTORE ADD PUSH1 0x40 MLOAD DUP1 SWAP2 SUB SWAP1 LOG1 STOP JUMPDEST PUSH1 0x0 DUP1 REVERT JUMPDEST CALLVALUE DUP1 ISZERO PUSH2 0xB3 JUMPI PUSH1 0x0 DUP1 REVERT JUMPDEST POP PUSH2 0xC7 PUSH2 0xC2 CALLDATASIZE PUSH1 0x4 PUSH2 0x4C9 JUMP JUMPDEST PUSH2 0x1A6 JUMP JUMPDEST STOP JUMPDEST CALLVALUE DUP1 ISZERO PUSH2 0xD5 JUMPI PUSH1 0x0 DUP1 REVERT JUMPDEST POP PUSH1 0x0 SLOAD JUMPDEST PUSH1 0x40 MLOAD SWAP1 DUP2 MSTORE PUSH1 0x20 ADD JUMPDEST PUSH1 0x40 MLOAD DUP1 SWAP2 SUB SWAP1 RETURN JUMPDEST CALLVALUE DUP1 ISZERO PUSH2 0xF9 JUMPI PUSH1 0x0 DUP1 REVERT JUMPDEST POP PUSH2 0x10D PUSH2 0x108 CALLDATASIZE PUSH1 0x4 PUSH2 0x4ED JUMP JUMPDEST PUSH2 0x37B JUMP JUMPDEST PUSH1 0x40 MLOAD PUSH1 0x1 PUSH1 0x1 PUSH1 0xA0 SHL SUB SWAP1 SWAP2 AND DUP2 MSTORE PUSH1 0x20 ADD PUSH2 0xE4 JUMP JUMPDEST CALLVALUE DUP1 ISZERO PUSH2 0x131 JUMPI PUSH1 0x0 DUP1 REVERT JUMPDEST POP PUSH2 0xDA PUSH2 0x140 CALLDATASIZE PUSH1 0x4 PUSH2 0x4C9 JUMP JUMPDEST PUSH1 0x1 PUSH1 0x1 PUSH1 0xA0 SHL SUB AND PUSH1 0x0 SWAP1 DUP2 MSTORE PUSH1 0x3 PUSH1 0x20 MSTORE PUSH1 0x40 SWAP1 KECCAK256 SLOAD SWAP1 JUMP JUMPDEST CALLVALUE DUP1 ISZERO PUSH2 0x167 JUMPI PUSH1 0x0 DUP1 REVERT JUMPDEST POP PUSH2 0xDA PUSH2 0x176 CALLDATASIZE PUSH1 0x4 PUSH2 0x4C9 JUMP JUMPDEST PUSH1 0x1 PUSH1 0x1 PUSH1 0xA0 SHL SUB AND PUSH1 0x0 SWAP1 DUP2 MSTORE PUSH1 0x2 PUSH1 0x20 MSTORE PUSH1 0x40 SWAP1 KECCAK256 SLOAD SWAP1 JUMP JUMPDEST CALLVALUE DUP1 ISZERO PUSH2 0x19D JUMPI PUSH1 0x0 DUP1 REVERT JUMPDEST POP PUSH1 0x1 SLOAD PUSH2 0xDA JUMP JUMPDEST PUSH1 0x1 PUSH1 0x1 PUSH1 0xA0 SHL SUB DUP2 AND PUSH1 0x0 SWAP1 DUP2 MSTORE PUSH1 0x2 PUSH1 0x20 MSTORE PUSH1 0x40 SWAP1 KECCAK256 SLOAD PUSH2 0x21F JUMPI PUSH1 0x40 MLOAD PUSH3 0x461BCD PUSH1 0xE5 SHL DUP2 MSTORE PUSH1 0x20 PUSH1 0x4 DUP3 ADD MSTORE PUSH1 0x26 PUSH1 0x24 DUP3 ADD MSTORE PUSH32 0x5061796D656E7453706C69747465723A206163636F756E7420686173206E6F20 PUSH1 0x44 DUP3 ADD MSTORE PUSH6 0x736861726573 PUSH1 0xD0 SHL PUSH1 0x64 DUP3 ADD MSTORE PUSH1 0x84 ADD JUMPDEST PUSH1 0x40 MLOAD DUP1 SWAP2 SUB SWAP1 REVERT JUMPDEST PUSH1 0x0 PUSH1 0x1 SLOAD SELFBALANCE PUSH2 0x22F SWAP2 SWAP1 PUSH2 0x506 JUMP JUMPDEST PUSH1 0x1 PUSH1 0x1 PUSH1 0xA0 SHL SUB DUP4 AND PUSH1 0x0 SWAP1 DUP2 MSTORE PUSH1 0x3 PUSH1 0x20 SWAP1 DUP2 MSTORE PUSH1 0x40 DUP1 DUP4 KECCAK256 SLOAD DUP4 SLOAD PUSH1 0x2 SWAP1 SWAP4 MSTORE SWAP1 DUP4 KECCAK256 SLOAD SWAP4 SWAP5 POP SWAP2 SWAP3 PUSH2 0x265 SWAP1 DUP6 PUSH2 0x540 JUMP JUMPDEST PUSH2 0x26F SWAP2 SWAP1 PUSH2 0x51E JUMP JUMPDEST PUSH2 0x279 SWAP2 SWAP1 PUSH2 0x55F JUMP JUMPDEST SWAP1 POP DUP1 PUSH2 0x2DC JUMPI PUSH1 0x40 MLOAD PUSH3 0x461BCD PUSH1 0xE5 SHL DUP2 MSTORE PUSH1 0x20 PUSH1 0x4 DUP3 ADD MSTORE PUSH1 0x2B PUSH1 0x24 DUP3 ADD MSTORE PUSH32 0x5061796D656E7453706C69747465723A206163636F756E74206973206E6F7420 PUSH1 0x44 DUP3 ADD MSTORE PUSH11 0x191D59481C185E5B595B9D PUSH1 0xAA SHL PUSH1 0x64 DUP3 ADD MSTORE PUSH1 0x84 ADD PUSH2 0x216 JUMP JUMPDEST PUSH1 0x1 PUSH1 0x1 PUSH1 0xA0 SHL SUB DUP4 AND PUSH1 0x0 SWAP1 DUP2 MSTORE PUSH1 0x3 PUSH1 0x20 MSTORE PUSH1 0x40 SWAP1 KECCAK256 SLOAD PUSH2 0x300 SWAP1 DUP3 SWAP1 PUSH2 0x506 JUMP JUMPDEST PUSH1 0x1 PUSH1 0x1 PUSH1 0xA0 SHL SUB DUP5 AND PUSH1 0x0 SWAP1 DUP2 MSTORE PUSH1 0x3 PUSH1 0x20 MSTORE PUSH1 0x40 SWAP1 KECCAK256 SSTORE PUSH1 0x1 SLOAD PUSH2 0x327 SWAP1 DUP3 SWAP1 PUSH2 0x506 JUMP JUMPDEST PUSH1 0x1 SSTORE PUSH2 0x334 DUP4 DUP3 PUSH2 0x3AB JUMP JUMPDEST PUSH1 0x40 DUP1 MLOAD PUSH1 0x1 PUSH1 0x1 PUSH1 0xA0 SHL SUB DUP6 AND DUP2 MSTORE PUSH1 0x20 DUP2 ADD DUP4 SWAP1 MSTORE PUSH32 0xDF20FD1E76BC69D672E4814FAFB2C449BBA3A5369D8359ADF9E05E6FDE87B056 SWAP2 ADD PUSH1 0x40 MLOAD DUP1 SWAP2 SUB SWAP1 LOG1 POP POP POP JUMP JUMPDEST PUSH1 0x0 PUSH1 0x4 DUP3 DUP2 SLOAD DUP2 LT PUSH2 0x390 JUMPI PUSH2 0x390 PUSH2 0x58C JUMP JUMPDEST PUSH1 0x0 SWAP2 DUP3 MSTORE PUSH1 0x20 SWAP1 SWAP2 KECCAK256 ADD SLOAD PUSH1 0x1 PUSH1 0x1 PUSH1 0xA0 SHL SUB AND SWAP3 SWAP2 POP POP JUMP JUMPDEST DUP1 SELFBALANCE LT ISZERO PUSH2 0x3FB JUMPI PUSH1 0x40 MLOAD PUSH3 0x461BCD PUSH1 0xE5 SHL DUP2 MSTORE PUSH1 0x20 PUSH1 0x4 DUP3 ADD MSTORE PUSH1 0x1D PUSH1 0x24 DUP3 ADD MSTORE PUSH32 0x416464726573733A20696E73756666696369656E742062616C616E6365000000 PUSH1 0x44 DUP3 ADD MSTORE PUSH1 0x64 ADD PUSH2 0x216 JUMP JUMPDEST PUSH1 0x0 DUP3 PUSH1 0x1 PUSH1 0x1 PUSH1 0xA0 SHL SUB AND DUP3 PUSH1 0x40 MLOAD PUSH1 0x0 PUSH1 0x40 MLOAD DUP1 DUP4 SUB DUP2 DUP6 DUP8 GAS CALL SWAP3 POP POP POP RETURNDATASIZE DUP1 PUSH1 0x0 DUP2 EQ PUSH2 0x448 JUMPI PUSH1 0x40 MLOAD SWAP2 POP PUSH1 0x1F NOT PUSH1 0x3F RETURNDATASIZE ADD AND DUP3 ADD PUSH1 0x40 MSTORE RETURNDATASIZE DUP3 MSTORE RETURNDATASIZE PUSH1 0x0 PUSH1 0x20 DUP5 ADD RETURNDATACOPY PUSH2 0x44D JUMP JUMPDEST PUSH1 0x60 SWAP2 POP JUMPDEST POP POP SWAP1 POP DUP1 PUSH2 0x4C4 JUMPI PUSH1 0x40 MLOAD PUSH3 0x461BCD PUSH1 0xE5 SHL DUP2 MSTORE PUSH1 0x20 PUSH1 0x4 DUP3 ADD MSTORE PUSH1 0x3A PUSH1 0x24 DUP3 ADD MSTORE PUSH32 0x416464726573733A20756E61626C6520746F2073656E642076616C75652C2072 PUSH1 0x44 DUP3 ADD MSTORE PUSH32 0x6563697069656E74206D61792068617665207265766572746564000000000000 PUSH1 0x64 DUP3 ADD MSTORE PUSH1 0x84 ADD PUSH2 0x216 JUMP JUMPDEST POP POP POP JUMP JUMPDEST PUSH1 0x0 PUSH1 0x20 DUP3 DUP5 SUB SLT ISZERO PUSH2 0x4DB JUMPI PUSH1 0x0 DUP1 REVERT JUMPDEST DUP2 CALLDATALOAD PUSH2 0x4E6 DUP2 PUSH2 0x5A2 JUMP JUMPDEST SWAP4 SWAP3 POP POP POP JUMP JUMPDEST PUSH1 0x0 PUSH1 0x20 DUP3 DUP5 SUB SLT ISZERO PUSH2 0x4FF JUMPI PUSH1 0x0 DUP1 REVERT JUMPDEST POP CALLDATALOAD SWAP2 SWAP1 POP JUMP JUMPDEST PUSH1 0x0 DUP3 NOT DUP3 GT ISZERO PUSH2 0x519 JUMPI PUSH2 0x519 PUSH2 0x576 JUMP JUMPDEST POP ADD SWAP1 JUMP JUMPDEST PUSH1 0x0 DUP3 PUSH2 0x53B JUMPI PUSH4 0x4E487B71 PUSH1 0xE0 SHL PUSH1 0x0 MSTORE PUSH1 0x12 PUSH1 0x4 MSTORE PUSH1 0x24 PUSH1 0x0 REVERT JUMPDEST POP DIV SWAP1 JUMP JUMPDEST PUSH1 0x0 DUP2 PUSH1 0x0 NOT DIV DUP4 GT DUP3 ISZERO ISZERO AND ISZERO PUSH2 0x55A JUMPI PUSH2 0x55A PUSH2 0x576 JUMP JUMPDEST POP MUL SWAP1 JUMP JUMPDEST PUSH1 0x0 DUP3 DUP3 LT ISZERO PUSH2 0x571 JUMPI PUSH2 0x571 PUSH2 0x576 JUMP JUMPDEST POP SUB SWAP1 JUMP JUMPDEST PUSH4 0x4E487B71 PUSH1 0xE0 SHL PUSH1 0x0 MSTORE PUSH1 0x11 PUSH1 0x4 MSTORE PUSH1 0x24 PUSH1 0x0 REVERT JUMPDEST PUSH4 0x4E487B71 PUSH1 0xE0 SHL PUSH1 0x0 MSTORE PUSH1 0x32 PUSH1 0x4 MSTORE PUSH1 0x24 PUSH1 0x0 REVERT JUMPDEST PUSH1 0x1 PUSH1 0x1 PUSH1 0xA0 SHL SUB DUP2 AND DUP2 EQ PUSH2 0x5B7 JUMPI PUSH1 0x0 DUP1 REVERT JUMPDEST POP JUMP INVALID LOG2 PUSH5 0x6970667358 0x22 SLT KECCAK256 POP 0x48 GASLIMIT 0xE2 DUP6 MULMOD 0x22 0xE7 0xBB PUSH15 0x2C49B04EBA6F84849AA5A06FF7767D 0xBF PUSH16 0x667FC5A69464736F6C63430008060033 ",
  "sha1": "282384b2d2af287231844e0e38daaf6b62b85c57",
  "source": "// SPDX-License-Identifier: MIT\n\npragma solidity ^0.8.0;\n\nimport \"../utils/Address.sol\";\nimport \"../utils/Context.sol\";\nimport \"../utils/math/SafeMath.sol\";\n\n/**\n * @title PaymentSplitter\n * @dev This contract allows to split Ether payments among a group of accounts. The sender does not need to be aware\n * that the Ether will be split in this way, since it is handled transparently by the contract.\n *\n * The split can be in equal parts or in any other arbitrary proportion. The way this is specified is by assigning each\n * account to a number of shares. Of all the Ether that this contract receives, each account will then be able to claim\n * an amount proportional to the percentage of total shares they were assigned.\n *\n * `PaymentSplitter` follows a _pull payment_ model. This means that payments are not automatically forwarded to the\n * accounts but kept in this contract, and the actual transfer is triggered as a separate step by calling the {release}\n * function.\n */\ncontract PaymentSplitter is Context {\n    event PayeeAdded(address account, uint256 shares);\n    event PaymentReleased(address to, uint256 amount);\n    event PaymentReceived(address from, uint256 amount);\n\n    uint256 private _totalShares;\n    uint256 private _totalReleased;\n\n    mapping(address => uint256) private _shares;\n    mapping(address => uint256) private _released;\n    address[] private _payees;\n\n    /**\n     * @dev Creates an instance of `PaymentSplitter` where each account in `payees` is assigned the number of shares at\n     * the matching position in the `shares` array.\n     *\n     * All addresses in `payees` must be non-zero. Both arrays must have the same non-zero length, and there must be no\n     * duplicates in `payees`.\n     */\n    constructor(address[] memory payees, uint256[] memory shares_) payable {\n        require(payees.length == shares_.length, \"PaymentSplitter: payees and shares length mismatch\");\n        require(payees.length > 0, \"PaymentSplitter: no payees\");\n\n        for (uint256 i = 0; i < payees.length; i++) {\n            _addPayee(payees[i], shares_[i]);\n        }\n    }\n\n    /**\n     * @dev The Ether received will be logged with {PaymentReceived} events. Note that these events are not fully\n     * reliable: it's possible for a contract to receive Ether without triggering this function. This only affects the\n     * reliability of the events, and not the actual splitting of Ether.\n     *\n     * To learn more about this see the Solidity documentation for\n     * https://solidity.readthedocs.io/en/latest/contracts.html#fallback-function[fallback\n     * functions].\n     */\n    receive() external payable virtual {\n        emit PaymentReceived(_msgSender(), msg.value);\n    }\n\n    /**\n     * @dev Getter for the total shares held by payees.\n     */\n    function totalShares() public view returns (uint256) {\n        return _totalShares;\n    }\n\n    /**\n     * @dev Getter for the total amount of Ether already released.\n     */\n    function totalReleased() public view returns (uint256) {\n        return _totalReleased;\n    }\n\n    /**\n     * @dev Getter for the amount of shares held by an account.\n     */\n    function shares(address account) public view returns (uint256) {\n        return _shares[account];\n    }\n\n    /**\n     * @dev Getter for the amount of Ether already released to a payee.\n     */\n    function released(address account) public view returns (uint256) {\n        return _released[account];\n    }\n\n    /**\n     * @dev Getter for the address of the payee number `index`.\n     */\n    function payee(uint256 index) public view returns (address) {\n        return _payees[index];\n    }\n\n    /**\n     * @dev Triggers a transfer to `account` of the amount of Ether they are owed, according to their percentage of the\n     * total shares and their previous withdrawals.\n     */\n    function release(address payable account) public virtual {\n        require(_shares[account] > 0, \"PaymentSplitter: account has no shares\");\n\n        uint256 totalReceived = address(this).balance + _totalReleased;\n        uint256 payment = (totalReceived * _shares[account]) / _totalShares - _released[account];\n\n        require(payment != 0, \"PaymentSplitter: account is not due payment\");\n\n        _released[account] = _released[account] + payment;\n        _totalReleased = _totalReleased + payment;\n\n        Address.sendValue(account, payment);\n        emit PaymentReleased(account, payment);\n    }\n\n    /**\n     * @dev Add a new payee to the contract.\n     * @param account The address of the payee to add.\n     * @param shares_ The number of shares owned by the payee.\n     */\n    function _addPayee(address account, uint256 shares_) private {\n        require(account != address(0), \"PaymentSplitter: account is the zero address\");\n        require(shares_ > 0, \"PaymentSplitter: shares are 0\");\n        require(_shares[account] == 0, \"PaymentSplitter: account already has shares\");\n\n        _payees.push(account);\n        _shares[account] = shares_;\n        _totalShares = _totalShares + shares_;\n        emit PayeeAdded(account, shares_);\n    }\n}\n",
  "sourcePath": "contracts/node_modules/@openzeppelin/contracts/finance/PaymentSplitter.sol",
  "type": "contract"
}